{
  "_format": "hh-sol-artifact-1",
  "contractName": "CertificateRegistry",
  "sourceName": "contracts/CertificateRegistry.sol",
  "abi": [
    {
      "inputs": [
        {
          "internalType": "address",
          "name": "initialOwner",
          "type": "address"
        }
      ],
      "stateMutability": "nonpayable",
      "type": "constructor"
    },
    {
      "inputs": [
        {
          "internalType": "address",
          "name": "owner",
          "type": "address"
        }
      ],
      "name": "OwnableInvalidOwner",
      "type": "error"
    },
    {
      "inputs": [
        {
          "internalType": "address",
          "name": "account",
          "type": "address"
        }
      ],
      "name": "OwnableUnauthorizedAccount",
      "type": "error"
    },
    {
      "anonymous": false,
      "inputs": [
        {
          "indexed": true,
          "internalType": "bytes32",
          "name": "certificateId",
          "type": "bytes32"
        },
        {
          "indexed": false,
          "internalType": "string",
          "name": "studentId",
          "type": "string"
        },
        {
          "indexed": false,
          "internalType": "string",
          "name": "metadataUri",
          "type": "string"
        },
        {
          "indexed": true,
          "internalType": "address",
          "name": "issuer",
          "type": "address"
        }
      ],
      "name": "CertificateIssued",
      "type": "event"
    },
    {
      "anonymous": false,
      "inputs": [
        {
          "indexed": true,
          "internalType": "bytes32",
          "name": "certificateId",
          "type": "bytes32"
        },
        {
          "indexed": true,
          "internalType": "address",
          "name": "revoker",
          "type": "address"
        }
      ],
      "name": "CertificateRevoked",
      "type": "event"
    },
    {
      "anonymous": false,
      "inputs": [
        {
          "indexed": true,
          "internalType": "address",
          "name": "previousOwner",
          "type": "address"
        },
        {
          "indexed": true,
          "internalType": "address",
          "name": "newOwner",
          "type": "address"
        }
      ],
      "name": "OwnershipTransferred",
      "type": "event"
    },
    {
      "inputs": [
        {
          "internalType": "bytes32",
          "name": "certificateId",
          "type": "bytes32"
        }
      ],
      "name": "getCertificate",
      "outputs": [
        {
          "internalType": "string",
          "name": "studentId",
          "type": "string"
        },
        {
          "internalType": "string",
          "name": "metadataUri",
          "type": "string"
        },
        {
          "internalType": "address",
          "name": "issuer",
          "type": "address"
        },
        {
          "internalType": "uint256",
          "name": "issuedAt",
          "type": "uint256"
        },
        {
          "internalType": "bool",
          "name": "revoked",
          "type": "bool"
        }
      ],
      "stateMutability": "view",
      "type": "function"
    },
    {
      "inputs": [
        {
          "internalType": "bytes32",
          "name": "certificateId",
          "type": "bytes32"
        },
        {
          "internalType": "string",
          "name": "studentId",
          "type": "string"
        },
        {
          "internalType": "string",
          "name": "metadataUri",
          "type": "string"
        }
      ],
      "name": "issueCertificate",
      "outputs": [],
      "stateMutability": "nonpayable",
      "type": "function"
    },
    {
      "inputs": [],
      "name": "owner",
      "outputs": [
        {
          "internalType": "address",
          "name": "",
          "type": "address"
        }
      ],
      "stateMutability": "view",
      "type": "function"
    },
    {
      "inputs": [],
      "name": "renounceOwnership",
      "outputs": [],
      "stateMutability": "nonpayable",
      "type": "function"
    },
    {
      "inputs": [
        {
          "internalType": "bytes32",
          "name": "certificateId",
          "type": "bytes32"
        }
      ],
      "name": "revokeCertificate",
      "outputs": [],
      "stateMutability": "nonpayable",
      "type": "function"
    },
    {
      "inputs": [
        {
          "internalType": "address",
          "name": "newOwner",
          "type": "address"
        }
      ],
      "name": "transferOwnership",
      "outputs": [],
      "stateMutability": "nonpayable",
      "type": "function"
    },
    {
      "inputs": [
        {
          "internalType": "bytes32",
          "name": "certificateId",
          "type": "bytes32"
        }
      ],
      "name": "verifyCertificate",
      "outputs": [
        {
          "internalType": "bool",
          "name": "isValid",
          "type": "bool"
        },
        {
          "internalType": "string",
          "name": "studentId",
          "type": "string"
        },
        {
          "internalType": "string",
          "name": "metadataUri",
          "type": "string"
        },
        {
          "internalType": "address",
          "name": "issuer",
          "type": "address"
        },
        {
          "internalType": "uint256",
          "name": "issuedAt",
          "type": "uint256"
        },
        {
          "internalType": "bool",
          "name": "revoked",
          "type": "bool"
        }
      ],
      "stateMutability": "view",
      "type": "function"
    }
  ],
  "bytecode": "0x60806040523480156200001157600080fd5b50604051620016a6380380620016a68339818101604052810190620000379190620001f4565b80600073ffffffffffffffffffffffffffffffffffffffff168173ffffffffffffffffffffffffffffffffffffffff1603620000ad5760006040517f1e4fbdf7000000000000000000000000000000000000000000000000000000008152600401620000a4919062000237565b60405180910390fd5b620000be81620000c660201b60201c565b505062000254565b60008060009054906101000a900473ffffffffffffffffffffffffffffffffffffffff169050816000806101000a81548173ffffffffffffffffffffffffffffffffffffffff021916908373ffffffffffffffffffffffffffffffffffffffff1602179055508173ffffffffffffffffffffffffffffffffffffffff168173ffffffffffffffffffffffffffffffffffffffff167f8be0079c531659141344cd1fd0a4f28419497f9722a3daafe3b4186f6b6457e060405160405180910390a35050565b600080fd5b600073ffffffffffffffffffffffffffffffffffffffff82169050919050565b6000620001bc826200018f565b9050919050565b620001ce81620001af565b8114620001da57600080fd5b50565b600081519050620001ee81620001c3565b92915050565b6000602082840312156200020d576200020c6200018a565b5b60006200021d84828501620001dd565b91505092915050565b6200023181620001af565b82525050565b60006020820190506200024e600083018462000226565b92915050565b61144280620002646000396000f3fe608060405234801561001057600080fd5b506004361061007d5760003560e01c8063abde212b1161005b578063abde212b146100df578063c6cbc52a146100fb578063f2fde38b14610117578063f333fe08146101335761007d565b8063715018a614610082578063850c17681461008c5780638da5cb5b146100c1575b600080fd5b61008a610167565b005b6100a660048036038101906100a19190610b68565b61017b565b6040516100b896959493929190610c9a565b60405180910390f35b6100c9610396565b6040516100d69190610d09565b60405180910390f35b6100f960048036038101906100f49190610d89565b6103bf565b005b61011560048036038101906101109190610b68565b61063d565b005b610131600480360381019061012c9190610e4a565b61075a565b005b61014d60048036038101906101489190610b68565b6107e0565b60405161015e959493929190610e77565b60405180910390f35b61016f6109d5565b6101796000610a5c565b565b6000606080600080600080600160008981526020019081526020016000206040518060a00160405290816000820180546101b490610f07565b80601f01602080910402602001604051908101604052809291908181526020018280546101e090610f07565b801561022d5780601f106102025761010080835404028352916020019161022d565b820191906000526020600020905b81548152906001019060200180831161021057829003601f168201915b5050505050815260200160018201805461024690610f07565b80601f016020809104026020016040519081016040528092919081815260200182805461027290610f07565b80156102bf5780601f10610294576101008083540402835291602001916102bf565b820191906000526020600020905b8154815290600101906020018083116102a257829003601f168201915b505050505081526020016002820160009054906101000a900473ffffffffffffffffffffffffffffffffffffffff1673ffffffffffffffffffffffffffffffffffffffff1673ffffffffffffffffffffffffffffffffffffffff168152602001600382015481526020016004820160009054906101000a900460ff1615151515815250509050600080826060015114159050600081801561036257508260800151155b9050808360000151846020015185604001518660600151876080015198509850985098509850985050505091939550919395565b60008060009054906101000a900473ffffffffffffffffffffffffffffffffffffffff16905090565b6103c76109d5565b6000600160008781526020019081526020016000206003015414610420576040517f08c379a000000000000000000000000000000000000000000000000000000000815260040161041790610f84565b60405180910390fd5b60008282905011610466576040517f08c379a000000000000000000000000000000000000000000000000000000000815260040161045d90610ff0565b60405180910390fd5b6040518060a0016040528085858080601f016020809104026020016040519081016040528093929190818152602001838380828437600081840152601f19601f82011690508083019250505050505050815260200183838080601f016020809104026020016040519081016040528093929190818152602001838380828437600081840152601f19601f8201169050808301925050505050505081526020013373ffffffffffffffffffffffffffffffffffffffff1681526020014281526020016000151581525060016000878152602001908152602001600020600082015181600001908161055691906111eb565b50602082015181600101908161056c91906111eb565b5060408201518160020160006101000a81548173ffffffffffffffffffffffffffffffffffffffff021916908373ffffffffffffffffffffffffffffffffffffffff1602179055506060820151816003015560808201518160040160006101000a81548160ff0219169083151502179055509050503373ffffffffffffffffffffffffffffffffffffffff16857f5c0348c216b5b88507abf395e257e83bd172cf494232657701d427410d12a8e28686868660405161062e94939291906112f9565b60405180910390a35050505050565b6106456109d5565b600060016000838152602001908152602001600020905060008160030154036106a3576040517f08c379a000000000000000000000000000000000000000000000000000000000815260040161069a90611380565b60405180910390fd5b8060040160009054906101000a900460ff16156106f5576040517f08c379a00000000000000000000000000000000000000000000000000000000081526004016106ec906113ec565b60405180910390fd5b60018160040160006101000a81548160ff0219169083151502179055503373ffffffffffffffffffffffffffffffffffffffff16827f1dbd7f0554a6447214abb6405781d5ee119037a7024fcb7fffd542c3c12cd77660405160405180910390a35050565b6107626109d5565b600073ffffffffffffffffffffffffffffffffffffffff168173ffffffffffffffffffffffffffffffffffffffff16036107d45760006040517f1e4fbdf70000000000000000000000000000000000000000000000000000000081526004016107cb9190610d09565b60405180910390fd5b6107dd81610a5c565b50565b606080600080600080600160008881526020019081526020016000206040518060a001604052908160008201805461081790610f07565b80601f016020809104026020016040519081016040528092919081815260200182805461084390610f07565b80156108905780601f1061086557610100808354040283529160200191610890565b820191906000526020600020905b81548152906001019060200180831161087357829003601f168201915b505050505081526020016001820180546108a990610f07565b80601f01602080910402602001604051908101604052809291908181526020018280546108d590610f07565b80156109225780601f106108f757610100808354040283529160200191610922565b820191906000526020600020905b81548152906001019060200180831161090557829003601f168201915b505050505081526020016002820160009054906101000a900473ffffffffffffffffffffffffffffffffffffffff1673ffffffffffffffffffffffffffffffffffffffff1673ffffffffffffffffffffffffffffffffffffffff168152602001600382015481526020016004820160009054906101000a900460ff161515151581525050905080600001518160200151826040015183606001518460800151955095509550955095505091939590929450565b6109dd610b20565b73ffffffffffffffffffffffffffffffffffffffff166109fb610396565b73ffffffffffffffffffffffffffffffffffffffff1614610a5a57610a1e610b20565b6040517f118cdaa7000000000000000000000000000000000000000000000000000000008152600401610a519190610d09565b60405180910390fd5b565b60008060009054906101000a900473ffffffffffffffffffffffffffffffffffffffff169050816000806101000a81548173ffffffffffffffffffffffffffffffffffffffff021916908373ffffffffffffffffffffffffffffffffffffffff1602179055508173ffffffffffffffffffffffffffffffffffffffff168173ffffffffffffffffffffffffffffffffffffffff167f8be0079c531659141344cd1fd0a4f28419497f9722a3daafe3b4186f6b6457e060405160405180910390a35050565b600033905090565b600080fd5b600080fd5b6000819050919050565b610b4581610b32565b8114610b5057600080fd5b50565b600081359050610b6281610b3c565b92915050565b600060208284031215610b7e57610b7d610b28565b5b6000610b8c84828501610b53565b91505092915050565b60008115159050919050565b610baa81610b95565b82525050565b600081519050919050565b600082825260208201905092915050565b60005b83811015610bea578082015181840152602081019050610bcf565b60008484015250505050565b6000601f19601f8301169050919050565b6000610c1282610bb0565b610c1c8185610bbb565b9350610c2c818560208601610bcc565b610c3581610bf6565b840191505092915050565b600073ffffffffffffffffffffffffffffffffffffffff82169050919050565b6000610c6b82610c40565b9050919050565b610c7b81610c60565b82525050565b6000819050919050565b610c9481610c81565b82525050565b600060c082019050610caf6000830189610ba1565b8181036020830152610cc18188610c07565b90508181036040830152610cd58187610c07565b9050610ce46060830186610c72565b610cf16080830185610c8b565b610cfe60a0830184610ba1565b979650505050505050565b6000602082019050610d1e6000830184610c72565b92915050565b600080fd5b600080fd5b600080fd5b60008083601f840112610d4957610d48610d24565b5b8235905067ffffffffffffffff811115610d6657610d65610d29565b5b602083019150836001820283011115610d8257610d81610d2e565b5b9250929050565b600080600080600060608688031215610da557610da4610b28565b5b6000610db388828901610b53565b955050602086013567ffffffffffffffff811115610dd457610dd3610b2d565b5b610de088828901610d33565b9450945050604086013567ffffffffffffffff811115610e0357610e02610b2d565b5b610e0f88828901610d33565b92509250509295509295909350565b610e2781610c60565b8114610e3257600080fd5b50565b600081359050610e4481610e1e565b92915050565b600060208284031215610e6057610e5f610b28565b5b6000610e6e84828501610e35565b91505092915050565b600060a0820190508181036000830152610e918188610c07565b90508181036020830152610ea58187610c07565b9050610eb46040830186610c72565b610ec16060830185610c8b565b610ece6080830184610ba1565b9695505050505050565b7f4e487b7100000000000000000000000000000000000000000000000000000000600052602260045260246000fd5b60006002820490506001821680610f1f57607f821691505b602082108103610f3257610f31610ed8565b5b50919050565b7f436572746966696361746520616c726561647920657869737473000000000000600082015250565b6000610f6e601a83610bbb565b9150610f7982610f38565b602082019050919050565b60006020820190508181036000830152610f9d81610f61565b9050919050565b7f4d65746164617461205552492072657175697265640000000000000000000000600082015250565b6000610fda601583610bbb565b9150610fe582610fa4565b602082019050919050565b6000602082019050818103600083015261100981610fcd565b9050919050565b7f4e487b7100000000000000000000000000000000000000000000000000000000600052604160045260246000fd5b60008190508160005260206000209050919050565b60006020601f8301049050919050565b600082821b905092915050565b6000600883026110a17fffffffffffffffffffffffffffffffffffffffffffffffffffffffffffffffff82611064565b6110ab8683611064565b95508019841693508086168417925050509392505050565b6000819050919050565b60006110e86110e36110de84610c81565b6110c3565b610c81565b9050919050565b6000819050919050565b611102836110cd565b61111661110e826110ef565b848454611071565b825550505050565b600090565b61112b61111e565b6111368184846110f9565b505050565b5b8181101561115a5761114f600082611123565b60018101905061113c565b5050565b601f82111561119f576111708161103f565b61117984611054565b81016020851015611188578190505b61119c61119485611054565b83018261113b565b50505b505050565b600082821c905092915050565b60006111c2600019846008026111a4565b1980831691505092915050565b60006111db83836111b1565b9150826002028217905092915050565b6111f482610bb0565b67ffffffffffffffff81111561120d5761120c611010565b5b6112178254610f07565b61122282828561115e565b600060209050601f8311600181146112555760008415611243578287015190505b61124d85826111cf565b8655506112b5565b601f1984166112638661103f565b60005b8281101561128b57848901518255600182019150602085019450602081019050611266565b868310156112a857848901516112a4601f8916826111b1565b8355505b6001600288020188555050505b505050505050565b82818337600083830152505050565b60006112d88385610bbb565b93506112e58385846112bd565b6112ee83610bf6565b840190509392505050565b600060408201905081810360008301526113148186886112cc565b905081810360208301526113298184866112cc565b905095945050505050565b7f4365727469666963617465206e6f7420666f756e640000000000000000000000600082015250565b600061136a601583610bbb565b915061137582611334565b602082019050919050565b600060208201905081810360008301526113998161135d565b9050919050565b7f436572746966696361746520616c7265616479207265766f6b65640000000000600082015250565b60006113d6601b83610bbb565b91506113e1826113a0565b602082019050919050565b60006020820190508181036000830152611405816113c9565b905091905056fea2646970667358221220b9af7e355b6dbb09d08fd0e44038f26cc0c8995fc0d87865d9921f78f3603add64736f6c63430008180033",
  "linkReferences": {},
  "deployedLinkReferences": {}
}